:020000040800F2
:10000000C806002089010008D90D0008D10D00089C
:10001000D50D000845020008ED0D000800000000A5
:10002000000000000000000000000000E10D0008DA
:100030004902000800000000DD0D0008E50D000881
:10004000A3010008A3010008A3010008A301000800
:10005000A3010008A3010008A3010008A3010008F0
:10006000A3010008A3010008A3010008A3010008E0
:10007000A3010008A3010008A3010008A3010008D0
:10008000A3010008A3010008A3010008A3010008C0
:10009000A3010008A3010008A3010008A3010008B0
:1000A000A3010008A3010008A3010008A3010008A0
:1000B000A3010008A3010008A3010008A301000890
:1000C000A3010008A3010008A3010008A301000880
:1000D000A3010008A3010008A3010008A301000870
:1000E0004D020008A3010008A301000800F002F877
:1000F00000F03AF80AA090E8000C82448344AAF188
:100100000107DA4501D100F02FF8AFF2090EBAE885
:100110000F0013F0010F18BFFB1A43F0010318473B
:10012000700E0000900E0000103A24BF78C878C10D
:10013000FAD8520724BF30C830C144BF04680C60ED
:10014000704700000023002400250026103A28BF35
:1001500078C1FBD8520728BF30C148BF0B60704739
:100160001FB51FBD10B510BD00F031F81146FFF7E7
:10017000F7FF00F03DFE00F04FF803B4FFF7F2FF89
:1001800003BC00F057F800000948804709480047C1
:10019000FEE7FEE7FEE7FEE7FEE7FEE7FEE7FEE737
:1001A000FEE7FEE704480549054A064B7047000094
:1001B000E90D0008ED000008C8000020C806002076
:1001C000C8020020C802002070477047704775467B
:1001D00000F02CF8AE4605006946534620F00700B3
:1001E000854618B020B5FFF7DDFFBDE820404FF091
:1001F00000064FF000074FF000084FF0000BAC4630
:10020000ACE8C009ACE8C009ACE8C009ACE8C0097A
:1002100021F007018D46704710B50446AFF300800A
:100220002046BDE81040FFF7A8BF00000048704717
:100230001000002001491820ABBEFEE72600020096
:1002400070470000FEE70000704700004FF40050C8
:1002500000F040B8B0B5044600F062F9054640F23F
:100260000000C2F200000078611C18BF044400BF07
:1002700000F056F9401BA042FAD3B0BDB0F5005FC4
:1002800018BF704710B540F60004C4F2010404F52D
:1002900000604FF4005100F037F948B100F040F928
:1002A00040F27001C2F200014860481C0AE000BF41
:1002B00020462021012200F02DF940F27000C2F208
:1002C0000000411C01220A7000210170BDE81040AD
:1002D0007047000040F21441C4F201010A68024272
:1002E00014BF08607047FFF7C9BF00002DE9F04F49
:1002F00082B00E68002E00F0038141F20042C4F289
:100300000102042340F2004E904208BF03234FF63F
:10031000FF7CC4F2010E009300240123C1F2100CF3
:100320004FF0000A4FF0000949E000BF012704F038
:100330000C030F229A402BEA020207FA03F34FEA5A
:100340009A051A4346F82520D1F804B040F20C452E
:100350005FEACB22DEF8082054BF22EA080242EA14
:100360000802C4F20105CEF808202A685FEA8B2350
:1003700054BF22EA080242EA08022A605FEA8B338D
:10038000DEF8042054BF22EA080242EA08025FEACB
:10039000CB33CEF80420DEF800204FF0010354BF29
:1003A00022EA080242EA0802CEF800200E680AF1AA
:1003B000010A36FA0AF204F1040400F0A18003FAFB
:1003C0000AF816EA080FF1D04E68664512DC122EC4
:1003D00056D8DFE806F0350B454955555555555566
:1003E000555555555555554D510000BFD1F80C90F8
:1003F00046E000BF4FF6FF72C1F2210296420FDCC9
:100400000022C1F2110296421AD00022C1F2120259
:10041000964215D00022C1F22102964210D02FE060
:100420000022C1F2220296420AD00022C1F2310219
:10043000964205D00022C1F23202964220D100BF7E
:100440008A684AB1012A14BFC0F81480C0F810802D
:100450004FF0080914E000BF4FF0040910E000BF9E
:10046000CA6802F108090BE04FF0000908E000BF7C
:10047000CA6802F1040903E0CA6802F10C0900BF6E
:1004800022460646BAF1080F24BF203A04363768E0
:100490000F25954027EA050509FA02F22A43326042
:1004A000CA79D2067FF582AF41F21803C4F2020383
:1004B0001A68AEF57E7642F001021A601A6802F000
:1004C00001020192019A2AF0030256F802B040F6A6
:1004D0000002C4F20102904210D040F60042C4F281
:1004E000010290423FF422AF41F20002C4F2010245
:1004F000009F904208BF022719E700BF002716E7B8
:1005000002B0BDE8F08F00008068084018BF0120ED
:1005100070470000002A08BF09040161704700000D
:1005200040F2C000C2F200000068704740F20000D4
:1005300040F2C001C2F20000C2F2000100780A6875
:10054000104408607047000080B542F20000C4F219
:100550000200016841F010010160032000F08EF8F4
:10056000002000F005F800F027F8002080BD000012
:1005700070B540F20006C2F2000640F2080132787F
:10058000C2F200014FF47A730968B3FBF2F2044639
:10059000B1FBF2F1084600F063FB0F2C4FF00105B0
:1005A00008D838B94FF0FF3021460022002500F06E
:1005B00039F87460284670BD82B041F21800C4F268
:1005C00002000168022241F001010160016801F0AE
:1005D000010101910199416841F0805141604068F9
:1005E00000F08050009000980420C4F201000168DF
:1005F00062F31A61016002B070470000002848BF32
:100600007047C1B200F01F00012202FA00F04EF262
:100610000012CEF2000242EAD10121F0030108608B
:100620007047000010B54EF60C5CCEF2000CDCF802
:100630000030C3F3022E8EF00704042C28BF0424DC
:10064000BEF103034FF0FF3E0EFA04F438BF00235F
:10065000A14399400EFA03F39A43114300F00F02AD
:1006600000F160430901043A03F564436244002841
:1006700048BF02F10C03197010BD00004EF60C517A
:10068000CEF200010A684FF6FF031A4060F30A2217
:1006900042F0806040F0FD70086070472DE9F04343
:1006A00081B0002800F0858042F20008C4F2020800
:1006B0000446D8F800000D4600F0070088420CD22E
:1006C000D8F8000020F007002843C8F80000D8F848
:1006D000000000F00700A8426BD1206841F2040935
:1006E0008107C4F2020917D5410705D5D9F80010D2
:1006F00041F4E061C9F80010010705D5D9F80010F0
:1007000041F46051C9F80010D9F80010A26821F036
:10071000F0011143C9F80010C00741D1D8F800001A
:1007200000F00700A8420CD9D8F8000020F007001C
:100730002843C8F80000D8F8000000F00700A842DD
:1007400037D12068410707D5D9F80010E26821F4B5
:10075000E0611143C9F80010000708D5D9F800007E
:10076000216920F4605040EAC100C9F80000D9F8BE
:10077000002002F00C00082841F20020C0F27A00AC
:1007800050D140F68073C2F38341C0F60003595C38
:10079000D2033BD440F60010C0F23D00484341E094
:1007A000606802280AD001282AD159F8041C89035C
:1007B00008D4012001B0BDE8F08300BF59F8041C43
:1007C0008901F6D5D9F8001021F003010843C9F8D2
:1007D0000000FFF7A5FE064641F28837D9F8000071
:1007E000616800F00C00B0EB810F97D0FFF798FE26
:1007F000801BB842F2D9032001B0BDE8F08300BFEE
:1008000059F8041C8907D4D5DCE700BFD9F80020CB
:1008100040F67E73C2F34042C0F600039A5C484340
:10082000B0FBF2F0D9F8001040F66672C1F3031184
:10083000C0F60002515C40F2080220FA01F140F2D9
:100840000400C2F200000068C2F200021160FFF76B
:100850008FFE002001B0BDE8F083000040F20800E8
:1008600041F20401C2F20000C4F20201006809680A
:1008700040F67672C1F30221C0F60002515CC84016
:100880007047000040F2080041F20401C2F200008B
:10089000C4F202010068096840F67672C1F3C22111
:1008A000C0F60002515CC840704700002DE9F041DD
:1008B00082B0002868D00446007841F20006C007E4
:1008C000C4F2020625D0706800F00C0004281BD08A
:1008D000706800F00C00082802D17068C00313D4BF
:1008E0006068002800F06881B0F5A02F00F07C81DE
:1008F000B0F5803F00F07C81306820F480303060BB
:10090000306820F4802076E13068800301D560688B
:10091000D0B32078800718D5706810F00C0F07D07E
:10092000706800F00C0008286ED17068C0036BD4AA
:100930003068800702D52069012825D130686169B7
:1009400020F0F80040EAC1003060207800071FD492
:100950002078400732D4E56995B1706800F00C004A
:10096000082840F08F80012D0ED07068216A00F4B5
:1009700080328A4208D1616A00F47010884203D143
:10098000002002B0BDE8F081012002B0BDE8F08196
:10099000A069002862D00020C4F242200121C0F8E2
:1009A0008014FFF7BDFD0546706A800700F18C805A
:1009B000FFF7B6FD401B0228F6D92AE1F06910F0D6
:1009C000805808D1F06940F08050F061F06900F083
:1009D00080500090009847F20007C4F20007386882
:1009E000C00529D4386840F480703860FFF798FD5E
:1009F000054600BF3868C0051ED4FFF791FD401BB7
:100A00006428F7D905E100BF2069002840F2000002
:100A1000C4F2422000F0828001210160FFF780FDD6
:100A2000054600BF306880073FF588AFFFF778FDC7
:100A3000401B0228F6D9ECE0E068002800F0808036
:100A4000052800F09780012800F09880306A20F097
:100A500001003062306A20F0040092E00020C4F20D
:100A600042200021C0F88014FFF75AFD054600BF60
:100A7000706A80077FF56CAFFFF752FD401B0228BC
:100A8000F6D9C6E00027C4F2422700203866FFF7F7
:100A900047FD022D05460BD13068800140F1BE8034
:100AA000FFF73EFD401B02284FF00300F4D968E732
:100AB000306880017FF564AFFFF732FD401B0228EC
:100AC0004FF00300F4D95CE740F20800C2F20000E6
:100AD000006844F6D351C1F26201A0FB0101480A4B
:100AE000019000BF00BF0198411E002801913FF412
:100AF0002FAF00BF0198411E002801913FF428AF9D
:100B000000BF0198411E002801913FF421AF00BFB2
:100B10000198411E00280191E4D119E700210160EC
:100B2000FFF7FEFC054600BF306880077FF50DAF7C
:100B3000FFF7F6FC401B02284FF00300F4D920E732
:100B4000306A20F001003062306A20F00400306228
:100B5000FFF7E6FC054641F2883700BF306A8007A0
:100B600020D5FFF7DDFC401BB8424FF00300F5D95C
:100B700007E700BF306A40F004003062306A40F09E
:100B800001003062FFF7CCFC054641F2883700BF18
:100B9000306A800706D4FFF7C3FC401BB842F7D980
:100BA00037E000BFB8F1000F7FF4D5AEF06920F058
:100BB0008050F061CFE600BF306820F480303060B4
:100BC000306820F480203060FFF7AAFC054600BFA3
:100BD000306880037FF59DAEFFF7A2FC401B6428C0
:100BE0004FF00300F4D9CCE6306840F48020306048
:100BF000306840F480303060FFF792FC054600BF5B
:100C0000306880033FF585AEFFF78AFC401B6428FF
:100C1000F6D9032002B0BDE8F08100BF206AB0F52C
:100C2000803F05D17168A26821F4003111437160E1
:100C30007168626A21F474111143084370600120E5
:100C40003866FFF76DFC0446306880013FF598AECA
:100C5000FFF766FC001B02284FF00300F4D990E672
:100C6000411E0020B0EB116F1CBF012070474EF2F7
:100C70001002CEF2000251604EF62351CEF2000176
:100C8000F0230B700721906011607047002804BFAB
:100C90000120704710B5044690F8410028B90020A3
:100CA00084F84000204600F063F8242084F84100D6
:100CB0002068D4E90212C36823F40053C3600369B7
:100CC00023F440531A430261D4E904231143C26858
:100CD000194341F20C639A431143C1604169A2690F
:100CE00021F44071114343F60002C4F20102904224
:100CF000416103D0FFF7B2FD02E000BFFFF7C2FD84
:100D00006268192148439100B0FBF1F048F21F518D
:100D1000C5F2EB11A0FB01235A094FF69C73C0F6F4
:100D2000FF7302FB0300322303EB0010A0FB010161
:100D3000F02303EA5113206803EB0212C1F34311BD
:100D400011448160016921F490410161416921F000
:100D50002A014161C16841F40051C1600020202195
:100D6000606484F8411084F84210606310BD000094
:100D700080B586B044F200410068C4F20001002250
:100D80008842049202D006B080BD00BF41F2180034
:100D9000C4F20200426842F400324260426802F447
:100DA00000320192019A026842F004020260006877
:100DB00000F00400019001980C20029002200390A2
:100DC000059001F5444002A9FFF790FA06B080BDF6
:100DD000FEE70000FEE70000FEE7000070470000AD
:100DE00070470000FFF7A2BB70470000FEE700005D
:100DF00090B0FFF7A9FB00240120CDE90B44CDE919
:100E000009440A9010200B904FF4601002250F90B7
:100E100006A8CDE907440695CDE90D54FFF746FD38
:100E200020B1EFF3108072B6FEE700BF0F20CDE9CE
:100E300001054FF48060CDE9040401A80221039468
:100E4000FFF72CFC20B1EFF3108072B6FEE700BF75
:100E5000002641F218000996C4F20200016840F62B
:100E6000000441F0100101600168C4F2010401F0C6
:100E70001001019101990168002241F020010160F7
:100E80000168202701F0200101910199016841F0DA
:100E900004010160016801F00401019101990168F8
:100EA00041F0080101600068202100F00800019075
:100EB00001982046FFF72EFB4FF4005006900020CB
:100EC000C1F2310006ADCDE9070604F50060294600
:100ED000FFF70CFA0120CDE9070602200990204611
:100EE00029460697FFF702FA282000210022FFF783
:100EF00099FB2820FFF782FB40F27005C2F2000543
:100F0000A4F54441284640F8081F4FF4E1310C2273
:100F1000C0E90116C0E90366C0E90526C661FFF70E
:100F2000B5FE40B1EFF3108072B600BFFEE700BF20
:100F30000A20FFF78FF9287860B1FFF7F1FA6968A6
:100F4000401AB0F5FA6F05D9204620210022FFF79C
:100F5000E1FA2E7068780028EAD02046202101228C
:100F6000FFF7D8FAE4E700000000000000000102EB
:100F7000030406070809000000000102030401023F
:100F800002030405060708090A0B0C0D0E0F1010CA
:100F9000B00F000800000020100000002801000829
:100FA000C00F000810000020B8060000440100082F
:100FB000010000001000000000127A000000000094
:04000005080000ED02
:00000001FF
